{
  "contractName": "Auction",
  "abi": [
    {
      "constant": true,
      "inputs": [],
      "name": "hoursT",
      "outputs": [
        {
          "name": "",
          "type": "uint256"
        }
      ],
      "payable": false,
      "stateMutability": "view",
      "type": "function"
    },
    {
      "constant": true,
      "inputs": [],
      "name": "weiTodayMinimum",
      "outputs": [
        {
          "name": "",
          "type": "uint256"
        }
      ],
      "payable": false,
      "stateMutability": "view",
      "type": "function"
    },
    {
      "constant": true,
      "inputs": [],
      "name": "nextTime",
      "outputs": [
        {
          "name": "",
          "type": "uint256"
        }
      ],
      "payable": false,
      "stateMutability": "view",
      "type": "function"
    },
    {
      "constant": true,
      "inputs": [],
      "name": "rate",
      "outputs": [
        {
          "name": "",
          "type": "uint256"
        }
      ],
      "payable": false,
      "stateMutability": "view",
      "type": "function"
    },
    {
      "constant": true,
      "inputs": [],
      "name": "weiRaised",
      "outputs": [
        {
          "name": "",
          "type": "uint256"
        }
      ],
      "payable": false,
      "stateMutability": "view",
      "type": "function"
    },
    {
      "constant": true,
      "inputs": [],
      "name": "wallet",
      "outputs": [
        {
          "name": "",
          "type": "address"
        }
      ],
      "payable": false,
      "stateMutability": "view",
      "type": "function"
    },
    {
      "constant": false,
      "inputs": [],
      "name": "renounceOwnership",
      "outputs": [],
      "payable": false,
      "stateMutability": "nonpayable",
      "type": "function"
    },
    {
      "constant": true,
      "inputs": [],
      "name": "bonus",
      "outputs": [
        {
          "name": "",
          "type": "uint256"
        }
      ],
      "payable": false,
      "stateMutability": "view",
      "type": "function"
    },
    {
      "constant": true,
      "inputs": [],
      "name": "startTime",
      "outputs": [
        {
          "name": "",
          "type": "uint256"
        }
      ],
      "payable": false,
      "stateMutability": "view",
      "type": "function"
    },
    {
      "constant": true,
      "inputs": [],
      "name": "owner",
      "outputs": [
        {
          "name": "",
          "type": "address"
        }
      ],
      "payable": false,
      "stateMutability": "view",
      "type": "function"
    },
    {
      "constant": true,
      "inputs": [],
      "name": "previosWei",
      "outputs": [
        {
          "name": "",
          "type": "uint256"
        }
      ],
      "payable": false,
      "stateMutability": "view",
      "type": "function"
    },
    {
      "constant": false,
      "inputs": [
        {
          "name": "_beneficiary",
          "type": "address"
        }
      ],
      "name": "buyTokens",
      "outputs": [],
      "payable": true,
      "stateMutability": "payable",
      "type": "function"
    },
    {
      "constant": false,
      "inputs": [
        {
          "name": "_newOwner",
          "type": "address"
        }
      ],
      "name": "transferOwnership",
      "outputs": [],
      "payable": false,
      "stateMutability": "nonpayable",
      "type": "function"
    },
    {
      "constant": true,
      "inputs": [],
      "name": "token",
      "outputs": [
        {
          "name": "",
          "type": "address"
        }
      ],
      "payable": false,
      "stateMutability": "view",
      "type": "function"
    },
    {
      "inputs": [
        {
          "name": "_rate",
          "type": "uint256"
        },
        {
          "name": "_wallet",
          "type": "address"
        },
        {
          "name": "_token",
          "type": "address"
        },
        {
          "name": "_startTime",
          "type": "uint256"
        },
        {
          "name": "_weiDayMinimum",
          "type": "uint256"
        },
        {
          "name": "_bonus",
          "type": "uint256"
        }
      ],
      "payable": false,
      "stateMutability": "nonpayable",
      "type": "constructor"
    },
    {
      "payable": true,
      "stateMutability": "payable",
      "type": "fallback"
    },
    {
      "anonymous": false,
      "inputs": [
        {
          "indexed": true,
          "name": "previousOwner",
          "type": "address"
        }
      ],
      "name": "OwnershipRenounced",
      "type": "event"
    },
    {
      "anonymous": false,
      "inputs": [
        {
          "indexed": true,
          "name": "previousOwner",
          "type": "address"
        },
        {
          "indexed": true,
          "name": "newOwner",
          "type": "address"
        }
      ],
      "name": "OwnershipTransferred",
      "type": "event"
    },
    {
      "anonymous": false,
      "inputs": [
        {
          "indexed": true,
          "name": "purchaser",
          "type": "address"
        },
        {
          "indexed": true,
          "name": "beneficiary",
          "type": "address"
        },
        {
          "indexed": false,
          "name": "value",
          "type": "uint256"
        },
        {
          "indexed": false,
          "name": "amount",
          "type": "uint256"
        }
      ],
      "name": "TokenPurchase",
      "type": "event"
    },
    {
      "constant": true,
      "inputs": [],
      "name": "returnUserSendedETH",
      "outputs": [
        {
          "name": "",
          "type": "uint256"
        }
      ],
      "payable": false,
      "stateMutability": "view",
      "type": "function"
    }
  ],
  "bytecode": "0x608060405261012c600a5534801561001657600080fd5b5060405160c08061084f83398101604090815281516020830151918301516060840151608085015160a090950151929491929091908585856000831161005b57600080fd5b600160a060020a038216151561007057600080fd5b600160a060020a038116151561008557600080fd5b60029290925560018054600160a060020a03928316600160a060020a031991821617909155600080549390921692811692909217905560048054909116331790556005839055600a546100e69084906401000000006104916100fc82021704565b6007556008919091556009555061010f92505050565b8181018281101561010957fe5b92915050565b6107318061011e6000396000f3006080604052600436106100da5763ffffffff7c0100000000000000000000000000000000000000000000000000000000600035041663081cec9a81146100e5578063089d7c051461010c5780632c27fe99146101215780632c4e722e146101365780634042b66f1461014b578063521eb2731461016057806366d8d75e14610191578063715018a6146101a657806375b4d78c146101bb57806378e97925146101d05780638da5cb5b146101e5578063ac980ba3146101fa578063ec8ac4d81461020f578063f2fde38b14610223578063fc0c546a14610244575b6100e333610259565b005b3480156100f157600080fd5b506100fa6102fb565b60408051918252519081900360200190f35b34801561011857600080fd5b506100fa610301565b34801561012d57600080fd5b506100fa610307565b34801561014257600080fd5b506100fa61030d565b34801561015757600080fd5b506100fa610313565b34801561016c57600080fd5b50610175610319565b60408051600160a060020a039092168252519081900360200190f35b34801561019d57600080fd5b506100fa610328565b3480156101b257600080fd5b506100e361033b565b3480156101c757600080fd5b506100fa6103a9565b3480156101dc57600080fd5b506100fa6103af565b3480156101f157600080fd5b506101756103b5565b34801561020657600080fd5b506100fa6103c4565b6100e3600160a060020a0360043516610259565b34801561022f57600080fd5b506100e3600160a060020a03600435166103ca565b34801561025057600080fd5b506101756103ed565b34600061026683836103fc565b61026f82610421565b600354909150610285908363ffffffff61049116565b60035561029283826104a4565b60408051838152602081018390528151600160a060020a0386169233927f623b3804fa71d67900d064613da8f94b9617215ee90799290593e1745087ad18929081900390910190a36102e4838361041d565b6102ec6104ae565b6102f683836104e7565b505050565b600a5481565b60085481565b60075481565b60025481565b60035481565b600154600160a060020a031681565b336000908152600b602052604090205490565b600454600160a060020a0316331461035257600080fd5b600454604051600160a060020a03909116907ff8df31144d9c2f0f6b59d69b8b98abd5459d07f2742c4df920b25aae33c6482090600090a26004805473ffffffffffffffffffffffffffffffffffffffff19169055565b60095481565b60055481565b600454600160a060020a031681565b60065481565b600454600160a060020a031633146103e157600080fd5b6103ea81610503565b50565b600054600160a060020a031681565b600160a060020a038216151561041157600080fd5b80151561041d57600080fd5b5050565b6000806007544210151561043757610437610581565b61043f6105c7565b90506008548110156104665760025461045f90849063ffffffff6105e516565b915061048b565b61045f61047e6002805461060e90919063ffffffff16565b849063ffffffff6105e516565b50919050565b8181018281101561049e57fe5b92915050565b61041d8282610623565b600154604051600160a060020a03909116903480156108fc02916000818181858888f193505050501580156103ea573d6000803e3d6000fd5b600160a060020a039091166000908152600b6020526040902055565b600160a060020a038116151561051857600080fd5b600454604051600160a060020a038084169216907f8be0079c531659141344cd1fd0a4f28419497f9722a3daafe3b4186f6b6457e090600090a36004805473ffffffffffffffffffffffffffffffffffffffff1916600160a060020a0392909216919091179055565b60075442101561059057600080fd5b6005546105a6906201518063ffffffff61049116565b50600a546005546105bc9163ffffffff61049116565b600755600354600655565b60006105e060065460035461064090919063ffffffff16565b905090565b60008215156105f65750600061049e565b5081810281838281151561060657fe5b041461049e57fe5b6000818381151561061b57fe5b049392505050565b60005461041d90600160a060020a0316838363ffffffff61065216565b60008282111561064c57fe5b50900390565b82600160a060020a031663a9059cbb83836040518363ffffffff167c01000000000000000000000000000000000000000000000000000000000281526004018083600160a060020a0316600160a060020a0316815260200182815260200192505050602060405180830381600087803b1580156106ce57600080fd5b505af11580156106e2573d6000803e3d6000fd5b505050506040513d60208110156106f857600080fd5b505115156102f657600080fd00a165627a7a723058204ee66e6aeb9b38fc5f91d62b4ea46d3292fbe7776b7b7dd8fd5677b5569f42f40029",
  "source": "pragma solidity ^0.4.24;\n\nimport \"openzeppelin-solidity/contracts/crowdsale/Crowdsale.sol\";\nimport \"openzeppelin-solidity/contracts/ownership/Ownable.sol\";\nimport \"openzeppelin-solidity/contracts/math/SafeMath.sol\";\n\ncontract Auction is Crowdsale, Ownable{\n\n using SafeMath for uint256;\n uint256 public startTime;\n uint256 public previosWei;\n uint256 public nextTime;\n uint256 public weiTodayMinimum;\n uint256 public bonus;\n uint256 public hoursT = 5 minutes; //Remove this change to hardcode 24 hours\n mapping (address => uint256) private usersETH;\n\n constructor(\n    uint256 _rate,\n    address _wallet,\n    ERC20 _token,\n    uint256 _startTime,\n    uint256 _weiDayMinimum,\n    uint256 _bonus\n  )\n  Crowdsale(_rate, _wallet, _token)\n  public\n  {\n    startTime = _startTime;\n    nextTime = _startTime.add(hoursT);\n    weiTodayMinimum = _weiDayMinimum;\n    bonus = _bonus;\n  }\n\n  function updateDayAuction() private\n  {\n    require(block.timestamp >= nextTime);\n    startTime.add(24 hours);\n    nextTime = startTime.add(hoursT);\n    previosWei = weiRaised;\n  }\n\n  function returnTodayWei()\n  internal view returns (uint256)\n  {\n    return weiRaised.sub(previosWei);\n  }\n\n  function returnUserSendedETH()\n  public view returns (uint256)\n  {\n    return usersETH[msg.sender];\n  }\n\n  // Write user ETH value to mapping\n  function _postValidatePurchase(\n    address _beneficiary,\n    uint256 _weiAmount\n  )\n    internal\n  {\n    usersETH[_beneficiary] = _weiAmount;\n  }\n\n  // Owirride rate count\n  function _getTokenAmount(uint256 _weiAmount)\n    internal view returns (uint256)\n  {\n\n    if(block.timestamp >= nextTime){\n      updateDayAuction();\n    }\n\n    uint256 weiToday = returnTodayWei();\n\n    if (weiToday < weiTodayMinimum){\n      return _weiAmount.mul(rate);\n    }\n    else{\n      return _weiAmount.mul(rate.div(2));\n    }\n  }\n}\n",
  "sourcePath": "/home/ruslan/CoTrader-Projects/CoStarter/contracts/Auction.sol",
  "compiler": {
    "name": "solc",
    "version": "0.4.24+commit.e67f0147.Emscripten.clang"
  },
  "schemaVersion": "2.0.1",
  "updatedAt": "2019-01-21T09:38:07.011Z"
}