{
  "contractName": "UniswapExchange",
  "abi": [
    {
      "constant": true,
      "inputs": [],
      "name": "tokenPool",
      "outputs": [
        {
          "name": "",
          "type": "uint256"
        }
      ],
      "payable": false,
      "stateMutability": "view",
      "type": "function"
    },
    {
      "constant": true,
      "inputs": [],
      "name": "FEE_RATE",
      "outputs": [
        {
          "name": "",
          "type": "uint256"
        }
      ],
      "payable": false,
      "stateMutability": "view",
      "type": "function"
    },
    {
      "constant": true,
      "inputs": [],
      "name": "totalShares",
      "outputs": [
        {
          "name": "",
          "type": "uint256"
        }
      ],
      "payable": false,
      "stateMutability": "view",
      "type": "function"
    },
    {
      "constant": true,
      "inputs": [],
      "name": "auctionAddress",
      "outputs": [
        {
          "name": "",
          "type": "address"
        }
      ],
      "payable": false,
      "stateMutability": "view",
      "type": "function"
    },
    {
      "constant": true,
      "inputs": [],
      "name": "isAuctionSet",
      "outputs": [
        {
          "name": "",
          "type": "bool"
        }
      ],
      "payable": false,
      "stateMutability": "view",
      "type": "function"
    },
    {
      "constant": true,
      "inputs": [],
      "name": "owner",
      "outputs": [
        {
          "name": "",
          "type": "address"
        }
      ],
      "payable": false,
      "stateMutability": "view",
      "type": "function"
    },
    {
      "constant": true,
      "inputs": [],
      "name": "factoryAddress",
      "outputs": [
        {
          "name": "",
          "type": "address"
        }
      ],
      "payable": false,
      "stateMutability": "view",
      "type": "function"
    },
    {
      "constant": true,
      "inputs": [],
      "name": "tokenAddress",
      "outputs": [
        {
          "name": "",
          "type": "address"
        }
      ],
      "payable": false,
      "stateMutability": "view",
      "type": "function"
    },
    {
      "constant": true,
      "inputs": [],
      "name": "invariant",
      "outputs": [
        {
          "name": "",
          "type": "uint256"
        }
      ],
      "payable": false,
      "stateMutability": "view",
      "type": "function"
    },
    {
      "constant": true,
      "inputs": [],
      "name": "ethPool",
      "outputs": [
        {
          "name": "",
          "type": "uint256"
        }
      ],
      "payable": false,
      "stateMutability": "view",
      "type": "function"
    },
    {
      "inputs": [
        {
          "name": "_tokenAddress",
          "type": "address"
        },
        {
          "name": "_owner",
          "type": "address"
        }
      ],
      "payable": false,
      "stateMutability": "nonpayable",
      "type": "constructor"
    },
    {
      "payable": true,
      "stateMutability": "payable",
      "type": "fallback"
    },
    {
      "anonymous": false,
      "inputs": [
        {
          "indexed": true,
          "name": "buyer",
          "type": "address"
        },
        {
          "indexed": true,
          "name": "ethIn",
          "type": "uint256"
        },
        {
          "indexed": true,
          "name": "tokensOut",
          "type": "uint256"
        }
      ],
      "name": "EthToTokenPurchase",
      "type": "event"
    },
    {
      "anonymous": false,
      "inputs": [
        {
          "indexed": true,
          "name": "buyer",
          "type": "address"
        },
        {
          "indexed": true,
          "name": "tokensIn",
          "type": "uint256"
        },
        {
          "indexed": true,
          "name": "ethOut",
          "type": "uint256"
        }
      ],
      "name": "TokenToEthPurchase",
      "type": "event"
    },
    {
      "anonymous": false,
      "inputs": [
        {
          "indexed": true,
          "name": "liquidityProvider",
          "type": "address"
        },
        {
          "indexed": true,
          "name": "sharesPurchased",
          "type": "uint256"
        }
      ],
      "name": "Investment",
      "type": "event"
    },
    {
      "anonymous": false,
      "inputs": [
        {
          "indexed": true,
          "name": "liquidityProvider",
          "type": "address"
        },
        {
          "indexed": true,
          "name": "sharesBurned",
          "type": "uint256"
        }
      ],
      "name": "Divestment",
      "type": "event"
    },
    {
      "constant": false,
      "inputs": [
        {
          "name": "_auctionAddress",
          "type": "address"
        }
      ],
      "name": "setAuctionAddress",
      "outputs": [],
      "payable": false,
      "stateMutability": "nonpayable",
      "type": "function"
    },
    {
      "constant": false,
      "inputs": [
        {
          "name": "_ETHAmount",
          "type": "uint256"
        },
        {
          "name": "_reciver",
          "type": "address"
        }
      ],
      "name": "getETH",
      "outputs": [],
      "payable": false,
      "stateMutability": "nonpayable",
      "type": "function"
    },
    {
      "constant": false,
      "inputs": [
        {
          "name": "_tokenAmount",
          "type": "uint256"
        }
      ],
      "name": "initializeExchange",
      "outputs": [],
      "payable": true,
      "stateMutability": "payable",
      "type": "function"
    },
    {
      "constant": false,
      "inputs": [
        {
          "name": "_minTokens",
          "type": "uint256"
        },
        {
          "name": "_timeout",
          "type": "uint256"
        }
      ],
      "name": "ethToTokenSwap",
      "outputs": [],
      "payable": true,
      "stateMutability": "payable",
      "type": "function"
    },
    {
      "constant": false,
      "inputs": [
        {
          "name": "_minTokens",
          "type": "uint256"
        },
        {
          "name": "_timeout",
          "type": "uint256"
        },
        {
          "name": "_recipient",
          "type": "address"
        }
      ],
      "name": "ethToTokenPayment",
      "outputs": [],
      "payable": true,
      "stateMutability": "payable",
      "type": "function"
    },
    {
      "constant": false,
      "inputs": [
        {
          "name": "_tokenAmount",
          "type": "uint256"
        },
        {
          "name": "_minEth",
          "type": "uint256"
        },
        {
          "name": "_timeout",
          "type": "uint256"
        }
      ],
      "name": "tokenToEthSwap",
      "outputs": [],
      "payable": false,
      "stateMutability": "nonpayable",
      "type": "function"
    },
    {
      "constant": false,
      "inputs": [
        {
          "name": "_tokenAmount",
          "type": "uint256"
        },
        {
          "name": "_minEth",
          "type": "uint256"
        },
        {
          "name": "_timeout",
          "type": "uint256"
        },
        {
          "name": "_recipient",
          "type": "address"
        }
      ],
      "name": "tokenToEthPayment",
      "outputs": [],
      "payable": false,
      "stateMutability": "nonpayable",
      "type": "function"
    },
    {
      "constant": false,
      "inputs": [
        {
          "name": "_tokenPurchased",
          "type": "address"
        },
        {
          "name": "_tokensSold",
          "type": "uint256"
        },
        {
          "name": "_minTokensReceived",
          "type": "uint256"
        },
        {
          "name": "_timeout",
          "type": "uint256"
        }
      ],
      "name": "tokenToTokenSwap",
      "outputs": [],
      "payable": false,
      "stateMutability": "nonpayable",
      "type": "function"
    },
    {
      "constant": false,
      "inputs": [
        {
          "name": "_tokenPurchased",
          "type": "address"
        },
        {
          "name": "_recipient",
          "type": "address"
        },
        {
          "name": "_tokensSold",
          "type": "uint256"
        },
        {
          "name": "_minTokensReceived",
          "type": "uint256"
        },
        {
          "name": "_timeout",
          "type": "uint256"
        }
      ],
      "name": "tokenToTokenPayment",
      "outputs": [],
      "payable": false,
      "stateMutability": "nonpayable",
      "type": "function"
    },
    {
      "constant": false,
      "inputs": [
        {
          "name": "_recipient",
          "type": "address"
        },
        {
          "name": "_minTokens",
          "type": "uint256"
        }
      ],
      "name": "tokenToTokenIn",
      "outputs": [
        {
          "name": "",
          "type": "bool"
        }
      ],
      "payable": true,
      "stateMutability": "payable",
      "type": "function"
    },
    {
      "constant": false,
      "inputs": [
        {
          "name": "_minShares",
          "type": "uint256"
        }
      ],
      "name": "investLiquidity",
      "outputs": [],
      "payable": true,
      "stateMutability": "payable",
      "type": "function"
    },
    {
      "constant": false,
      "inputs": [
        {
          "name": "_sharesBurned",
          "type": "uint256"
        },
        {
          "name": "_minEth",
          "type": "uint256"
        },
        {
          "name": "_minTokens",
          "type": "uint256"
        }
      ],
      "name": "divestLiquidity",
      "outputs": [],
      "payable": false,
      "stateMutability": "nonpayable",
      "type": "function"
    },
    {
      "constant": true,
      "inputs": [
        {
          "name": "_provider",
          "type": "address"
        }
      ],
      "name": "getShares",
      "outputs": [
        {
          "name": "_shares",
          "type": "uint256"
        }
      ],
      "payable": false,
      "stateMutability": "view",
      "type": "function"
    }
  ],
  "bytecode": "0x60806040526009805460a060020a60ff021916905534801561002057600080fd5b506040516040806115f583398101604052805160209091015160048054600160a060020a03938416600160a060020a031991821617918290556005805482163317908190556007805483169386169390931790925560088054821692851692909217909155600a8054939092169216919091179055611551806100a46000396000f3006080604052600436106101315763ffffffff7c01000000000000000000000000000000000000000000000000000000006000350416627975e7811461014c578063104e99291461017657806312675e011461019d578063231b4ca4146101a85780632d11c58a146101c65780632fdb4612146101db5780633a98ef39146102055780634bf213a21461021a5780635476ea9e1461024a5780635bd780321461027b578063657aa489146102a45780638da5cb5b146102be5780638e9712e1146102d357806393ac3638146102ea57806393ec7c3d1461030b578063966dae0e14610319578063985dea231461032e5780639d76ea5814610352578063aa852f5614610367578063b03a9a0514610385578063f04da65b1461039a578063f16673a4146103bb578063f9935f8f146103d0575b34151561013d57600080fd5b61014a33333460016103db565b005b34801561015857600080fd5b5061014a600435602435604435600160a060020a036064351661058c565b34801561018257600080fd5b5061018b6105f0565b60408051918252519081900360200190f35b61014a6004356105f6565b3480156101b457600080fd5b5061014a6004356024356044356107f4565b3480156101d257600080fd5b5061018b610a1c565b3480156101e757600080fd5b5061014a600160a060020a0360043516602435604435606435610a22565b34801561021157600080fd5b5061018b610a55565b34801561022657600080fd5b5061014a600160a060020a0360043581169060243516604435606435608435610a5b565b34801561025657600080fd5b5061025f610aba565b60408051600160a060020a039092168252519081900360200190f35b34801561028757600080fd5b50610290610ac9565b604080519115158252519081900360200190f35b61014a600435602435600160a060020a0360443516610aea565b3480156102ca57600080fd5b5061025f610b4d565b610290600160a060020a0360043516602435610b5c565b3480156102f657600080fd5b5061014a600160a060020a0360043516610c2a565b61014a600435602435610cc8565b34801561032557600080fd5b5061025f610cfe565b34801561033a57600080fd5b5061014a600435600160a060020a0360243516610d0d565b34801561035e57600080fd5b5061025f610e2c565b34801561037357600080fd5b5061014a600435602435604435610e3b565b34801561039157600080fd5b5061018b610e6d565b3480156103a657600080fd5b5061018b600160a060020a0360043516610e73565b3480156103c757600080fd5b5061018b610e8e565b61014a600435610e94565b6000806000806000806002541180156103f657506000600354115b151561040157600080fd5b610413876101f463ffffffff610faf16565b600054909550610429908863ffffffff610fc616565b935061043b848663ffffffff610fd316565b600254909350610451908463ffffffff610faf16565b600154909250610467908363ffffffff610fd316565b905085811015801561047b57506001548111155b151561048657600080fd5b600084905560018290556104a0848363ffffffff610fe516565b60025560405181908890600160a060020a038c16907fc2d4406fadcd716ab4a11dd67875462a28108de6a8911747c9ca93c8c3c32c2290600090a4600754604080517fa9059cbb000000000000000000000000000000000000000000000000000000008152600160a060020a038b81166004830152602482018590529151919092169163a9059cbb9160448083019260209291908290030181600087803b15801561054a57600080fd5b505af115801561055e573d6000803e3d6000fd5b505050506040513d602081101561057457600080fd5b5051151561058157600080fd5b505050505050505050565b60008411801561059c5750600083115b80156105a757508142105b15156105b257600080fd5b600160a060020a038116158015906105d35750600160a060020a0381163014155b15156105de57600080fd5b6105ea3382868661100e565b50505050565b60015481565b600080600080600060025411801561061057506000600354115b151561061b57600080fd5b60003411801561062b5750600085115b151561063657600080fd5b60035460005461064b9163ffffffff610faf16565b93503484111561065a57600080fd5b61066a348563ffffffff610faf16565b92508483101561067957600080fd5b60035460015461068e9163ffffffff610faf16565b91506106a0838363ffffffff610fe516565b336000908152600660205260409020549091506106c3908463ffffffff610fc616565b336000908152600660205260409020556003546106e6908463ffffffff610fc616565b6003556000546106fc903463ffffffff610fc616565b600055600154610712908263ffffffff610fc616565b60018190556000546107299163ffffffff610fe516565b600255604051839033907ffe123a1efb6782dccd20e9790951adcfab3cd0e11b85a6f06d8b9222d299a0a390600090a36007546040805160e060020a6323b872dd028152336004820152306024820152604481018490529051600160a060020a03909216916323b872dd916064808201926020929091908290030181600087803b1580156107b657600080fd5b505af11580156107ca573d6000803e3d6000fd5b505050506040513d60208110156107e057600080fd5b505115156107ed57600080fd5b5050505050565b600080808080871161080557600080fd5b33600090815260066020526040902054610825908863ffffffff610fd316565b33600090815260066020526040812091909155600354905461084c9163ffffffff610faf16565b9350610865600354600154610faf90919063ffffffff16565b9250610877848863ffffffff610fe516565b9150610889838863ffffffff610fe516565b905085821015801561089b5750848110155b15156108a657600080fd5b6003546108b9908863ffffffff610fd316565b6003556000546108cf908363ffffffff610fd316565b6000556001546108e5908263ffffffff610fd316565b60015560035415156108fb576000600255610914565b6001546000546109109163ffffffff610fe516565b6002555b604051879033907f04c88fcf03215155a0d0a2fdbd430ab9f32013f00499b2899c180dc6077180ca90600090a3600754604080517fa9059cbb000000000000000000000000000000000000000000000000000000008152336004820152602481018490529051600160a060020a039092169163a9059cbb916044808201926020929091908290030181600087803b1580156109ae57600080fd5b505af11580156109c2573d6000803e3d6000fd5b505050506040513d60208110156109d857600080fd5b505115156109e557600080fd5b604051339083156108fc029084906000818181858888f19350505050158015610a12573d6000803e3d6000fd5b5050505050505050565b6101f481565b600083118015610a325750600082115b8015610a3d57508042105b1515610a4857600080fd5b6105ea84333386866111e6565b60035481565b600083118015610a6b5750600082115b8015610a7657508042105b1515610a8157600080fd5b600160a060020a03841615801590610aa25750600160a060020a0384163014155b1515610aad57600080fd5b6107ed85338686866111e6565b600954600160a060020a031681565b60095474010000000000000000000000000000000000000000900460ff1681565b600034118015610afa5750600083115b8015610b0557508142105b1515610b1057600080fd5b600160a060020a03811615801590610b315750600160a060020a0381163014155b1515610b3c57600080fd5b610b48338234866103db565b505050565b600a54600160a060020a031681565b600080348110610b6b57600080fd5b600854604080517feb0edb500000000000000000000000000000000000000000000000000000000081523360048201529051600160a060020a039092169163eb0edb50916024808201926020929091908290030181600087803b158015610bd157600080fd5b505af1158015610be5573d6000803e3d6000fd5b505050506040513d6020811015610bfb57600080fd5b50519050600160a060020a0381161515610c1457600080fd5b610c20338534866103db565b5060019392505050565b600a54600160a060020a03163314610c4157600080fd5b60095474010000000000000000000000000000000000000000900460ff1615610c6957600080fd5b6009805474ff000000000000000000000000000000000000000019600160a060020a0390931673ffffffffffffffffffffffffffffffffffffffff19909116179190911674010000000000000000000000000000000000000000179055565b600034118015610cd85750600082115b8015610ce357508042105b1515610cee57600080fd5b610cfa333334856103db565b5050565b600554600160a060020a031681565b600a54600090600160a060020a03163314610d2757600080fd5b60095474010000000000000000000000000000000000000000900460ff161515610d5057600080fd5b604051600160a060020a0383169084156108fc029085906000818181858888f19350505050158015610d86573d6000803e3d6000fd5b5050600754600954604080517fa9059cbb000000000000000000000000000000000000000000000000000000008152600160a060020a039283166004820152620f424086026024820181905291519193929092169163a9059cbb9160448083019260209291908290030181600087803b158015610e0257600080fd5b505af1158015610e16573d6000803e3d6000fd5b505050506040513d60208110156107ed57600080fd5b600454600160a060020a031681565b600083118015610e4b5750600082115b8015610e5657508042105b1515610e6157600080fd5b610b483333858561100e565b60025481565b600160a060020a031660009081526006602052604090205490565b60005481565b600254158015610ea45750600354155b1515610eaf57600080fd5b6127103410158015610ec357506127108110155b8015610ed75750674563918244f400003411155b1515610ee257600080fd5b3460008190556001829055610efd908263ffffffff610fe516565b6002553360008181526006602090815260408083206103e890819055600355600754815160e060020a6323b872dd0281526004810195909552306024860152604485018690529051600160a060020a03909116936323b872dd9360648083019493928390030190829087803b158015610f7557600080fd5b505af1158015610f89573d6000803e3d6000fd5b505050506040513d6020811015610f9f57600080fd5b50511515610fac57600080fd5b50565b60008183811515610fbc57fe5b0490505b92915050565b81810182811015610fc057fe5b600082821115610fdf57fe5b50900390565b6000821515610ff657506000610fc0565b5081810281838281151561100657fe5b0414610fc057fe5b60008060008060008060025411801561102957506000600354115b151561103457600080fd5b611046876101f463ffffffff610faf16565b60015490955061105c908863ffffffff610fc616565b935061106e848663ffffffff610fd316565b600254909350611084908463ffffffff610faf16565b60005490925061109a908363ffffffff610fd316565b90508581101580156110ae57506000548111155b15156110b957600080fd5b600184905560008290556110d3828563ffffffff610fe516565b60025560405181908890600160a060020a038c16907f7c27598163cc48e7b019ece0015ee6e3ea794251b47ae935d916f0f1cf5ac16d90600090a46007546040805160e060020a6323b872dd028152600160a060020a038c81166004830152306024830152604482018b9052915191909216916323b872dd9160648083019260209291908290030181600087803b15801561116d57600080fd5b505af1158015611181573d6000803e3d6000fd5b505050506040513d602081101561119757600080fd5b505115156111a457600080fd5b604051600160a060020a0389169082156108fc029083906000818181858888f193505050501580156111da573d6000803e3d6000fd5b50505050505050505050565b60008060008060008060008060025411801561120457506000600354115b151561120f57600080fd5b600160a060020a038c16158015906112305750600160a060020a038c163014155b151561123b57600080fd5b600854604080517fc80b310f000000000000000000000000000000000000000000000000000000008152600160a060020a038f811660048301529151919092169163c80b310f9160248083019260209291908290030181600087803b1580156112a357600080fd5b505af11580156112b7573d6000803e3d6000fd5b505050506040513d60208110156112cd57600080fd5b50519650600160a060020a038716158015906112f25750600160a060020a0387163014155b15156112fd57600080fd5b61130f896101f463ffffffff610faf16565b600154909650611325908a63ffffffff610fc616565b9450611337858763ffffffff610fd316565b60025490945061134d908563ffffffff610faf16565b600054909350611363908463ffffffff610fd316565b60005490925082111561137557600080fd5b86905081898c600160a060020a03167f7c27598163cc48e7b019ece0015ee6e3ea794251b47ae935d916f0f1cf5ac16d60405160405180910390a4600185905560008390556113ca838663ffffffff610fe516565b6002556007546040805160e060020a6323b872dd028152600160a060020a038e81166004830152306024830152604482018d9052915191909216916323b872dd9160648083019260209291908290030181600087803b15801561142c57600080fd5b505af1158015611440573d6000803e3d6000fd5b505050506040513d602081101561145657600080fd5b5051151561146357600080fd5b80600160a060020a0316638e9712e1838c8b6040518463ffffffff167c01000000000000000000000000000000000000000000000000000000000281526004018083600160a060020a0316600160a060020a03168152602001828152602001925050506020604051808303818588803b1580156114df57600080fd5b505af11580156114f3573d6000803e3d6000fd5b50505050506040513d602081101561150a57600080fd5b5051151561151757600080fd5b5050505050505050505050505600a165627a7a72305820ca63145fff58b0586fb2a6b3736f4120769f81acf73b9672e15c6d38fb13a9be0029",
  "source": "pragma solidity ^0.4.24;\nimport \"openzeppelin-solidity/contracts/math/SafeMath.sol\";\nimport \"openzeppelin-solidity/contracts/token/ERC20/ERC20.sol\";\nimport \"./UniswapFactory.sol\";\n\n\ncontract UniswapExchange {\n    using SafeMath for uint256;\n\n    /// EVENTS\n    event EthToTokenPurchase(address indexed buyer, uint256 indexed ethIn, uint256 indexed tokensOut);\n    event TokenToEthPurchase(address indexed buyer, uint256 indexed tokensIn, uint256 indexed ethOut);\n    event Investment(address indexed liquidityProvider, uint256 indexed sharesPurchased);\n    event Divestment(address indexed liquidityProvider, uint256 indexed sharesBurned);\n\n    /// CONSTANTS\n    uint256 public constant FEE_RATE = 500;        //fee = 1/feeRate = 0.2%\n\n    /// STORAGE\n    uint256 public ethPool;\n    uint256 public tokenPool;\n    uint256 public invariant;\n    uint256 public totalShares;\n    address public tokenAddress;\n    address public factoryAddress;\n    mapping(address => uint256) shares;\n    ERC20 token;\n    FactoryInterface factory;\n    address public auctionAddress;\n    bool public isAuctionSet = false;\n    address public owner;\n    /// MODIFIERS\n    modifier exchangeInitialized() {\n        require(invariant > 0 && totalShares > 0);\n        _;\n    }\n\n    modifier onlyOwner() {\n      require(msg.sender == owner);\n      _;\n    }\n\n    /// CONSTRUCTOR\n    constructor(address _tokenAddress, address _owner) public {\n        tokenAddress = _tokenAddress;\n        factoryAddress = msg.sender;\n        token = ERC20(tokenAddress);\n        factory = FactoryInterface(factoryAddress);\n        owner = _owner;\n    }\n\n    /// FALLBACK FUNCTION\n    function() public payable {\n        require(msg.value != 0);\n        ethToToken(msg.sender, msg.sender, msg.value, 1);\n    }\n\n    function setAuctionAddress(address _auctionAddress) public onlyOwner {\n        //Owner Can set auction address only one Time\n        require(!isAuctionSet);\n        auctionAddress = _auctionAddress;\n        isAuctionSet = true;\n    }\n\n    // Onwer can get 5% ETH per mounth\n    // Not finished\n    // Owner set as contract factory\n    function getETH(uint256 _ETHAmount, address _reciver) public onlyOwner {\n        //Send ETH to owner _wallet\n        // Send Token = equal ETH windraw to ico contract\n        // require (_ETHAmount <= AllowETH);\n        // require (block.timestamp > AllowTime);\n        require(isAuctionSet);\n        uint256 tokenAmount;\n        _reciver.transfer(_ETHAmount);\n        tokenAmount = 1000000 * _ETHAmount;\n        token.transfer(auctionAddress, tokenAmount);\n    }\n\n    /// EXTERNAL FUNCTIONS\n    function initializeExchange(uint256 _tokenAmount) external payable {\n        require(invariant == 0 && totalShares == 0);\n        // Prevents share cost from being too high or too low - potentially needs work\n        require(msg.value >= 10000 && _tokenAmount >= 10000 && msg.value <= 5*10**18);\n        ethPool = msg.value;\n        tokenPool = _tokenAmount;\n        invariant = ethPool.mul(tokenPool);\n        shares[msg.sender] = 1000;\n        totalShares = 1000;\n        require(token.transferFrom(msg.sender, address(this), _tokenAmount));\n    }\n\n    // Buyer swaps ETH for Tokens\n    function ethToTokenSwap(\n        uint256 _minTokens,\n        uint256 _timeout\n    )\n        external\n        payable\n    {\n        require(msg.value > 0 && _minTokens > 0 && now < _timeout);\n        ethToToken(msg.sender, msg.sender, msg.value,  _minTokens);\n    }\n\n    // Payer pays in ETH, recipient receives Tokens\n    function ethToTokenPayment(\n        uint256 _minTokens,\n        uint256 _timeout,\n        address _recipient\n    )\n        external\n        payable\n    {\n        require(msg.value > 0 && _minTokens > 0 && now < _timeout);\n        require(_recipient != address(0) && _recipient != address(this));\n        ethToToken(msg.sender, _recipient, msg.value,  _minTokens);\n    }\n\n    // Buyer swaps Tokens for ETH\n    function tokenToEthSwap(\n        uint256 _tokenAmount,\n        uint256 _minEth,\n        uint256 _timeout\n    )\n        external\n    {\n        require(_tokenAmount > 0 && _minEth > 0 && now < _timeout);\n        tokenToEth(msg.sender, msg.sender, _tokenAmount, _minEth);\n    }\n\n    // Payer pays in Tokens, recipient receives ETH\n    function tokenToEthPayment(\n        uint256 _tokenAmount,\n        uint256 _minEth,\n        uint256 _timeout,\n        address _recipient\n    )\n        external\n    {\n        require(_tokenAmount > 0 && _minEth > 0 && now < _timeout);\n        require(_recipient != address(0) && _recipient != address(this));\n        tokenToEth(msg.sender, _recipient, _tokenAmount, _minEth);\n    }\n\n    // Buyer swaps Tokens in current exchange for Tokens of provided address\n    function tokenToTokenSwap(\n        address _tokenPurchased,                  // Must be a token with an attached Uniswap exchange\n        uint256 _tokensSold,\n        uint256 _minTokensReceived,\n        uint256 _timeout\n    )\n        external\n    {\n        require(_tokensSold > 0 && _minTokensReceived > 0 && now < _timeout);\n        tokenToTokenOut(_tokenPurchased, msg.sender, msg.sender, _tokensSold, _minTokensReceived);\n    }\n\n    // Payer pays in exchange Token, recipient receives Tokens of provided address\n    function tokenToTokenPayment(\n        address _tokenPurchased,\n        address _recipient,\n        uint256 _tokensSold,\n        uint256 _minTokensReceived,\n        uint256 _timeout\n    )\n        external\n    {\n        require(_tokensSold > 0 && _minTokensReceived > 0 && now < _timeout);\n        require(_recipient != address(0) && _recipient != address(this));\n        tokenToTokenOut(_tokenPurchased, msg.sender, _recipient, _tokensSold, _minTokensReceived);\n    }\n\n    // Function called by another Uniswap exchange in Token to Token swaps and payments\n    function tokenToTokenIn(\n        address _recipient,\n        uint256 _minTokens\n    )\n        external\n        payable\n        returns (bool)\n    {\n        require(msg.value > 0);\n        address exchangeToken = factory.exchangeToTokenLookup(msg.sender);\n        require(exchangeToken != address(0));   // Only a Uniswap exchange can call this function\n        ethToToken(msg.sender, _recipient, msg.value, _minTokens);\n        return true;\n    }\n\n    // Invest liquidity and receive market shares\n    function investLiquidity(\n        uint256 _minShares\n    )\n        external\n        payable\n        exchangeInitialized\n    {\n        require(msg.value > 0 && _minShares > 0);\n        uint256 ethPerShare = ethPool.div(totalShares);\n        require(msg.value >= ethPerShare);\n        uint256 sharesPurchased = msg.value.div(ethPerShare);\n        require(sharesPurchased >= _minShares);\n        uint256 tokensPerShare = tokenPool.div(totalShares);\n        uint256 tokensRequired = sharesPurchased.mul(tokensPerShare);\n        shares[msg.sender] = shares[msg.sender].add(sharesPurchased);\n        totalShares = totalShares.add(sharesPurchased);\n        ethPool = ethPool.add(msg.value);\n        tokenPool = tokenPool.add(tokensRequired);\n        invariant = ethPool.mul(tokenPool);\n        emit Investment(msg.sender, sharesPurchased);\n        require(token.transferFrom(msg.sender, address(this), tokensRequired));\n    }\n\n    // Divest market shares and receive liquidity\n    function divestLiquidity(\n        uint256 _sharesBurned,\n        uint256 _minEth,\n        uint256 _minTokens\n    )\n        external\n    {\n        require(_sharesBurned > 0);\n        shares[msg.sender] = shares[msg.sender].sub(_sharesBurned);\n        uint256 ethPerShare = ethPool.div(totalShares);\n        uint256 tokensPerShare = tokenPool.div(totalShares);\n        uint256 ethDivested = ethPerShare.mul(_sharesBurned);\n        uint256 tokensDivested = tokensPerShare.mul(_sharesBurned);\n        require(ethDivested >= _minEth && tokensDivested >= _minTokens);\n        totalShares = totalShares.sub(_sharesBurned);\n        ethPool = ethPool.sub(ethDivested);\n        tokenPool = tokenPool.sub(tokensDivested);\n        if (totalShares == 0) {\n            invariant = 0;\n        } else {\n            invariant = ethPool.mul(tokenPool);\n        }\n        emit Divestment(msg.sender, _sharesBurned);\n        require(token.transfer(msg.sender, tokensDivested));\n        msg.sender.transfer(ethDivested);\n    }\n\n    // View share balance of an address\n    function getShares(\n        address _provider\n    )\n        external\n        view\n        returns(uint256 _shares)\n    {\n        return shares[_provider];\n    }\n\n    /// INTERNAL FUNCTIONS\n    function ethToToken(\n        address buyer,\n        address recipient,\n        uint256 ethIn,\n        uint256 minTokensOut\n    )\n        internal\n        exchangeInitialized\n    {\n        uint256 fee = ethIn.div(FEE_RATE);\n        uint256 newEthPool = ethPool.add(ethIn);\n        uint256 tempEthPool = newEthPool.sub(fee);\n        uint256 newTokenPool = invariant.div(tempEthPool);\n        uint256 tokensOut = tokenPool.sub(newTokenPool);\n        require(tokensOut >= minTokensOut && tokensOut <= tokenPool);\n        ethPool = newEthPool;\n        tokenPool = newTokenPool;\n        invariant = newEthPool.mul(newTokenPool);\n        emit EthToTokenPurchase(buyer, ethIn, tokensOut);\n        require(token.transfer(recipient, tokensOut));\n    }\n\n    function tokenToEth(\n        address buyer,\n        address recipient,\n        uint256 tokensIn,\n        uint256 minEthOut\n    )\n        internal\n        exchangeInitialized\n    {\n        uint256 fee = tokensIn.div(FEE_RATE);\n        uint256 newTokenPool = tokenPool.add(tokensIn);\n        uint256 tempTokenPool = newTokenPool.sub(fee);\n        uint256 newEthPool = invariant.div(tempTokenPool);\n        uint256 ethOut = ethPool.sub(newEthPool);\n        require(ethOut >= minEthOut && ethOut <= ethPool);\n        tokenPool = newTokenPool;\n        ethPool = newEthPool;\n        invariant = newEthPool.mul(newTokenPool);\n        emit TokenToEthPurchase(buyer, tokensIn, ethOut);\n        require(token.transferFrom(buyer, address(this), tokensIn));\n        recipient.transfer(ethOut);\n    }\n\n    function tokenToTokenOut(\n        address tokenPurchased,\n        address buyer,\n        address recipient,\n        uint256 tokensIn,\n        uint256 minTokensOut\n    )\n        internal\n        exchangeInitialized\n    {\n        require(tokenPurchased != address(0) && tokenPurchased != address(this));\n        address exchangeAddress = factory.tokenToExchangeLookup(tokenPurchased);\n        require(exchangeAddress != address(0) && exchangeAddress != address(this));\n        uint256 fee = tokensIn.div(FEE_RATE);\n        uint256 newTokenPool = tokenPool.add(tokensIn);\n        uint256 tempTokenPool = newTokenPool.sub(fee);\n        uint256 newEthPool = invariant.div(tempTokenPool);\n        uint256 ethOut = ethPool.sub(newEthPool);\n        require(ethOut <= ethPool);\n        UniswapExchange exchange = UniswapExchange(exchangeAddress);\n        emit TokenToEthPurchase(buyer, tokensIn, ethOut);\n        tokenPool = newTokenPool;\n        ethPool = newEthPool;\n        invariant = newEthPool.mul(newTokenPool);\n        require(token.transferFrom(buyer, address(this), tokensIn));\n        require(exchange.tokenToTokenIn.value(ethOut)(recipient, minTokensOut));\n    }\n}\n",
  "sourcePath": "/home/ruslan/CoTrader-Projects/CoStarter/contracts/UniswapExchange.sol",
  "compiler": {
    "name": "solc",
    "version": "0.4.24+commit.e67f0147.Emscripten.clang"
  },
  "schemaVersion": "2.0.1",
  "updatedAt": "2019-01-21T09:38:07.013Z"
}